{
    "contractName": "GameManager",
    "abi": [
        {
            "inputs": [
                {
                    "internalType": "address",
                    "name": "_uniqueNFT",
                    "type": "address"
                },
                {
                    "internalType": "address",
                    "name": "_multiNFT",
                    "type": "address"
                },
                {
                    "internalType": "uint256",
                    "name": "_cardPackPrice",
                    "type": "uint256"
                }
            ],
            "stateMutability": "nonpayable",
            "type": "constructor"
        },
        {
            "anonymous": false,
            "inputs": [
                {
                    "indexed": true,
                    "internalType": "address",
                    "name": "user",
                    "type": "address"
                },
                {
                    "indexed": false,
                    "internalType": "uint256",
                    "name": "typeId",
                    "type": "uint256"
                },
                {
                    "indexed": false,
                    "internalType": "string",
                    "name": "uri",
                    "type": "string"
                }
            ],
            "name": "MultiCardMinted",
            "type": "event"
        },
        {
            "anonymous": false,
            "inputs": [
                {
                    "indexed": true,
                    "internalType": "address",
                    "name": "user",
                    "type": "address"
                },
                {
                    "indexed": false,
                    "internalType": "uint256",
                    "name": "tokenId",
                    "type": "uint256"
                },
                {
                    "indexed": false,
                    "internalType": "string",
                    "name": "uri",
                    "type": "string"
                }
            ],
            "name": "UniqueCardMinted",
            "type": "event"
        },
        {
            "inputs": [
                {
                    "internalType": "string",
                    "name": "uri",
                    "type": "string"
                }
            ],
            "name": "addMultiCardType",
            "outputs": [
                {
                    "internalType": "uint256",
                    "name": "",
                    "type": "uint256"
                }
            ],
            "stateMutability": "nonpayable",
            "type": "function"
        },
        {
            "inputs": [
                {
                    "internalType": "uint256",
                    "name": "tokenId",
                    "type": "uint256"
                },
                {
                    "internalType": "string",
                    "name": "uri",
                    "type": "string"
                }
            ],
            "name": "addUniqueCard",
            "outputs": [],
            "stateMutability": "nonpayable",
            "type": "function"
        },
        {
            "inputs": [
                {
                    "internalType": "uint256",
                    "name": "tokenId",
                    "type": "uint256"
                }
            ],
            "name": "cancelUniqueCardForSale",
            "outputs": [],
            "stateMutability": "nonpayable",
            "type": "function"
        },
        {
            "inputs": [],
            "name": "cardPackPrice",
            "outputs": [
                {
                    "internalType": "uint256",
                    "name": "",
                    "type": "uint256"
                }
            ],
            "stateMutability": "view",
            "type": "function"
        },
        {
            "inputs": [
                {
                    "internalType": "address",
                    "name": "user",
                    "type": "address"
                }
            ],
            "name": "getUserMultiCards",
            "outputs": [
                {
                    "internalType": "uint256[]",
                    "name": "typeIds",
                    "type": "uint256[]"
                },
                {
                    "internalType": "uint256[]",
                    "name": "balances",
                    "type": "uint256[]"
                },
                {
                    "internalType": "string[]",
                    "name": "uris",
                    "type": "string[]"
                }
            ],
            "stateMutability": "view",
            "type": "function"
        },
        {
            "inputs": [
                {
                    "internalType": "address",
                    "name": "user",
                    "type": "address"
                }
            ],
            "name": "getUserUniqueCards",
            "outputs": [
                {
                    "internalType": "uint256[]",
                    "name": "ids",
                    "type": "uint256[]"
                },
                {
                    "internalType": "string[]",
                    "name": "uris",
                    "type": "string[]"
                }
            ],
            "stateMutability": "view",
            "type": "function"
        },
        {
            "inputs": [
                {
                    "internalType": "uint256",
                    "name": "",
                    "type": "uint256"
                }
            ],
            "name": "multiCardIds",
            "outputs": [
                {
                    "internalType": "uint256",
                    "name": "",
                    "type": "uint256"
                }
            ],
            "stateMutability": "view",
            "type": "function"
        },
        {
            "inputs": [
                {
                    "internalType": "uint256",
                    "name": "",
                    "type": "uint256"
                }
            ],
            "name": "multiCardURIs",
            "outputs": [
                {
                    "internalType": "string",
                    "name": "",
                    "type": "string"
                }
            ],
            "stateMutability": "view",
            "type": "function"
        },
        {
            "inputs": [],
            "name": "multiNFT",
            "outputs": [
                {
                    "internalType": "contract MultiCardItems",
                    "name": "",
                    "type": "address"
                }
            ],
            "stateMutability": "view",
            "type": "function"
        },
        {
            "inputs": [],
            "name": "openCardPack",
            "outputs": [],
            "stateMutability": "payable",
            "type": "function"
        },
        {
            "inputs": [],
            "name": "owner",
            "outputs": [
                {
                    "internalType": "address",
                    "name": "",
                    "type": "address"
                }
            ],
            "stateMutability": "view",
            "type": "function"
        },
        {
            "inputs": [
                {
                    "internalType": "uint256",
                    "name": "_price",
                    "type": "uint256"
                }
            ],
            "name": "setCardPackPrice",
            "outputs": [],
            "stateMutability": "nonpayable",
            "type": "function"
        },
        {
            "inputs": [
                {
                    "internalType": "uint256",
                    "name": "typeId",
                    "type": "uint256"
                },
                {
                    "internalType": "uint256",
                    "name": "price",
                    "type": "uint256"
                }
            ],
            "name": "setMultiCardForSale",
            "outputs": [],
            "stateMutability": "nonpayable",
            "type": "function"
        },
        {
            "inputs": [
                {
                    "internalType": "address",
                    "name": "_uniqueNFT",
                    "type": "address"
                },
                {
                    "internalType": "address",
                    "name": "_multiNFT",
                    "type": "address"
                }
            ],
            "name": "setNFTContracts",
            "outputs": [],
            "stateMutability": "nonpayable",
            "type": "function"
        },
        {
            "inputs": [
                {
                    "internalType": "uint256",
                    "name": "tokenId",
                    "type": "uint256"
                },
                {
                    "internalType": "uint256",
                    "name": "price",
                    "type": "uint256"
                }
            ],
            "name": "setUniqueCardForSale",
            "outputs": [],
            "stateMutability": "nonpayable",
            "type": "function"
        },
        {
            "inputs": [
                {
                    "internalType": "uint256",
                    "name": "",
                    "type": "uint256"
                }
            ],
            "name": "uniqueCardIds",
            "outputs": [
                {
                    "internalType": "uint256",
                    "name": "",
                    "type": "uint256"
                }
            ],
            "stateMutability": "view",
            "type": "function"
        },
        {
            "inputs": [
                {
                    "internalType": "uint256",
                    "name": "",
                    "type": "uint256"
                }
            ],
            "name": "uniqueCardMinted",
            "outputs": [
                {
                    "internalType": "bool",
                    "name": "",
                    "type": "bool"
                }
            ],
            "stateMutability": "view",
            "type": "function"
        },
        {
            "inputs": [
                {
                    "internalType": "uint256",
                    "name": "",
                    "type": "uint256"
                }
            ],
            "name": "uniqueCardURIs",
            "outputs": [
                {
                    "internalType": "string",
                    "name": "",
                    "type": "string"
                }
            ],
            "stateMutability": "view",
            "type": "function"
        },
        {
            "inputs": [],
            "name": "uniqueNFT",
            "outputs": [
                {
                    "internalType": "contract UniqueCardNFT",
                    "name": "",
                    "type": "address"
                }
            ],
            "stateMutability": "view",
            "type": "function"
        },
        {
            "inputs": [],
            "name": "withdraw",
            "outputs": [],
            "stateMutability": "nonpayable",
            "type": "function"
        }
    ],
    "bytecode": "608034609f57601f6116cb38819003918201601f19168301916001600160401b0383118484101760a357808492606094604052833981010312609f5760428160b7565b906040604f6020830160b7565b9101515f80546001600160a01b03199081166001600160a01b0395861617909155600180548216949093169390931790915560028054909216331790915560035560405161160090816100cb8239f35b5f80fd5b634e487b7160e01b5f52604160045260245ffd5b51906001600160a01b0382168203609f5756fe60806040526004361015610011575f80fd5b5f5f3560e01c806303e9b09114610d53578063102dfdab14610d2a57806321baf29814610bca5780633ccfd60b14610b855780633e6fdf7d14610ad75780633ed9dd4914610ab95780635c6c558714610a90578063659ee04c14610a5657806373d65fab1461098b578063760c48a0146108595780638da5cb5b146108305780638e977d0e146105e3578063a62882d5146105b4578063a904125f14610584578063c6ec2dab14610459578063c7bb3fda146103e1578063d3c5efb6146103ba578063decba8a514610181578063eb993ee41461014c5763feb5d0cb146100f6575f80fd5b346101495760203660031901126101495761012a61013160406101459360043581526006602052206040519283809261111f565b0382610f3b565b604051918291602083526020830190611055565b0390f35b80fd5b50346101495760203660031901126101495761012a61013160406101459360043581526008602052206040519283809261111f565b50346101495760203660031901126101495761019b61100c565b600554829190825b81811061030157506101bd6101b7856111f1565b94611223565b9280815b8381106101f2576101e48761014588604051938493604085526040850190611022565b908382036020850152611079565b6101fb81610fdf565b90549060031b1c808452600460205260ff60408520541680610279575b610226575b506001016101c1565b828161027292610239600195968c61126c565b528552600660205261012a610257604087206040519283809261111f565b610261828a61126c565b5261026c818961126c565b506112dd565b919061021d565b5083546040516331a9108f60e11b81526004810183905290602090829060249082906001600160a01b03165afa9081156102f65785916102c8575b506001600160a01b03878116911614610218565b6102e9915060203d81116102ef575b6102e18183610f3b565b810190611280565b5f6102b4565b503d6102d7565b6040513d87823e3d90fd5b61030a81610fdf565b90549060031b1c808552600460205260ff604086205416908161034a575b50610336575b6001016101a3565b936103426001916112dd565b94905061032e565b85546040516331a9108f60e11b81526004810192909252909150602090829060249082906001600160a01b03165afa9081156102f657859161039c575b506001600160a01b038481169116145f610328565b6103b4915060203d81116102ef576102e18183610f3b565b5f610387565b5034610149578060031936011261014957546040516001600160a01b039091168152602090f35b5034610149576040366003190112610149576103fb61100c565b6024356001600160a01b03811691908290036104555761042660018060a01b036002541633146111a0565b60018060a01b03166001600160601b0360a01b8354161782556001600160601b0360a01b600154161760015580f35b8280fd5b503461014957610468366110d1565b600154604051627eeac760e11b81523360048201526024810184905291926001600160a01b0390911691602081604481865afa9081156102f657859161054e575b5015610509578392823b15610504576044849283604051958694859363f7d9757760e01b8552600485015260248401525af180156104f9576104e85750f35b816104f291610f3b565b6101495780f35b6040513d84823e3d90fd5b505050fd5b60405162461bcd60e51b815260206004820152601760248201527f596f7520646f6e2774206f776e207468697320747970650000000000000000006044820152606490fd5b90506020813d60201161057c575b8161056960209383610f3b565b8101031261057857515f6104a9565b5f80fd5b3d915061055c565b5034610149576020366003190112610149576105ab60018060a01b036002541633146111a0565b60043560035580f35b50346101495760203660031901126101495760ff60406020926004358152600484522054166040519015158152f35b50346101495760203660031901126101495760043567ffffffffffffffff811161082c57610615903690600401610f5d565b61062a60018060a01b036002541633146111a0565b60015460405163130eda5760e31b8152602060048201819052909182906001600160a01b03168186816106606024820189611055565b03925af19081156108215783916107ef575b50600754600160401b8110156107db57816106988260016106b094016007556007610ff7565b90919082549060031b91821b915f19901b1916179055565b808352600860205260408320825167ffffffffffffffff81116107c7576106d782546110e7565b601f8111610782575b5060209485906001601f84111461072357948293949592610718575b50508160011b915f199060031b1c19161790555b604051908152f35b015190505f806106fc565b90601f19831695848352818320925b87811061076b575083600195969710610753575b505050811b019055610710565b01515f1960f88460031b161c191690555f8080610746565b919288600181928685015181550194019201610732565b82865260208620601f830160051c810191602084106107bd575b601f0160051c01905b8181106107b257506106e0565b8681556001016107a5565b909150819061079c565b634e487b7160e01b85526041600452602485fd5b634e487b7160e01b84526041600452602484fd5b90506020813d602011610819575b8161080a60209383610f3b565b8101031261057857515f610672565b3d91506107fd565b6040513d85823e3d90fd5b5080fd5b50346101495780600319360112610149576002546040516001600160a01b039091168152602090f35b508060031936011261014957600354341061093b57606460405160208101906108b4816108a644334287916054939183526001600160601b03199060601b16602083015260348201520190565b03601f198101835282610f3b565b51902006600a8110156108ce57506108cb336113d3565b80f35b602381101561090357600116600301806003116108ef576108cb90336112ff565b634e487b7160e01b82526011600452602482fd5b60039060418110156109255706600501806005116108ef576108cb90336112ff565b06600701806007116108ef576108cb90336112ff565b60405162461bcd60e51b815260206004820152602260248201527f496e73756666696369656e74207061796d656e7420666f722063617264207061604482015261636b60f01b6064820152608490fd5b50346101495760203660031901126101495780546040516331a9108f60e11b81526004803590820181905283926001600160a01b031691602081602481865afa8015610a4b576109ed918591610a2c575b506001600160a01b0316331461129f565b813b15610a2857829160448392604051948593849263f7d9757760e01b8452600484015261029160248401525af180156104f9576104e85750f35b5050fd5b610a45915060203d6020116102ef576102e18183610f3b565b5f6109dc565b6040513d86823e3d90fd5b50346101495760203660031901126101495760043590600554821015610149576020610a8183610fdf565b90549060031b1c604051908152f35b50346101495780600319360112610149576001546040516001600160a01b039091168152602090f35b50346101495780600319360112610149576020600354604051908152f35b503461057857610ae6366110d1565b5f546040516331a9108f60e11b8152600481018490526001600160a01b03909116929190602081602481875afa8015610b7a57610b34915f91610a2c57506001600160a01b0316331461129f565b823b156105785760445f9283604051958694859363f7d9757760e01b8552600485015260248401525af18015610b7a57610b6c575080f35b610b7891505f90610f3b565b005b6040513d5f823e3d90fd5b34610578575f366003190112610578575f80808060018060a01b0360025416610baf8133146111a0565b4790828215610bc1575bf115610b7a57005b506108fc610bb9565b3461057857602036600319011261057857610be361100c565b60075490610bf0826111f1565b90610bfa836111f1565b92610c0481611223565b60015490926001600160a01b03909116905f5b838110610c5a57610c3e8661014587610c4c8b604051958695606087526060870190611022565b908582036020870152611022565b908382036040850152611079565b610c6381610fb3565b90549060031b1c9081610c76828961126c565b52604051627eeac760e11b81526001600160a01b03841660048201526024810183905291602083604481885afa8015610b7a575f90610cf8575b60019350610cbe838b61126c565b525f52600860205261012a610cdc60405f206040519283809261111f565b610ce6828861126c565b52610cf1818761126c565b5001610c17565b506020833d8211610d22575b81610d1160209383610f3b565b810103126105785760019251610cb0565b3d9150610d04565b346105785760203660031901126105785760043560075481101561057857610a81602091610fb3565b346105785760403660031901126105785760043560243567ffffffffffffffff811161057857610d87903690600401610f5d565b90610d9d60018060a01b036002541633146111a0565b805f52600460205260ff60405f205416610ef657600554600160401b811015610ee25781610698826001610dd694016005556005610ff7565b5f52600660205260405f20815167ffffffffffffffff8111610ee257610dfc82546110e7565b601f8111610e9d575b50602092601f8211600114610e4157928192935f92610e36575b50505f19600383901b1c191660019190911b179055005b015190508380610e1f565b601f19821693835f52805f20915f5b868110610e855750836001959610610e6d575b505050811b019055005b01515f1960f88460031b161c19169055838080610e63565b91926020600181928685015181550194019201610e50565b825f5260205f20601f830160051c81019160208410610ed8575b601f0160051c01905b818110610ecd5750610e05565b5f8155600101610ec0565b9091508190610eb7565b634e487b7160e01b5f52604160045260245ffd5b60405162461bcd60e51b815260206004820152601760248201527f4361726420616c726561647920726567697374657265640000000000000000006044820152606490fd5b90601f8019910116810190811067ffffffffffffffff821117610ee257604052565b81601f820112156105785780359067ffffffffffffffff8211610ee25760405192610f92601f8401601f191660200185610f3b565b8284526020838301011161057857815f926020809301838601378301015290565b600754811015610fcb5760075f5260205f2001905f90565b634e487b7160e01b5f52603260045260245ffd5b600554811015610fcb5760055f5260205f2001905f90565b8054821015610fcb575f5260205f2001905f90565b600435906001600160a01b038216820361057857565b90602080835192838152019201905f5b81811061103f5750505090565b8251845260209384019390920191600101611032565b805180835260209291819084018484015e5f828201840152601f01601f1916010190565b9080602083519182815201916020808360051b8301019401925f915b8383106110a457505050505090565b90919293946020806110c2600193601f198682030187528951611055565b97019301930191939290611095565b6040906003190112610578576004359060243590565b90600182811c92168015611115575b602083101461110157565b634e487b7160e01b5f52602260045260245ffd5b91607f16916110f6565b5f929181549161112e836110e7565b8083529260018116908115611183575060011461114a57505050565b5f9081526020812093945091925b838310611169575060209250010190565b600181602092949394548385870101520191019190611158565b915050602093945060ff929192191683830152151560051b010190565b156111a757565b60405162461bcd60e51b815260206004820152600a60248201526927b7363c9037bbb732b960b11b6044820152606490fd5b67ffffffffffffffff8111610ee25760051b60200190565b906111fb826111d9565b6112086040519182610f3b565b8281528092611219601f19916111d9565b0190602036910137565b9061122d826111d9565b61123a6040519182610f3b565b828152809261124b601f19916111d9565b01905f5b82811061125b57505050565b80606060208093850101520161124f565b8051821015610fcb5760209160051b010190565b9081602091031261057857516001600160a01b03811681036105785790565b156112a657565b60405162461bcd60e51b815260206004820152600f60248201526e2737ba103a37b5b2b71037bbb732b960891b6044820152606490fd5b5f1981146112eb5760010190565b634e487b7160e01b5f52601160045260245ffd5b6001546001600160a01b0316915f91833b15610578575f8091606460405180948193630ab714fb60e11b835260018060a01b031698896004840152876024840152600160448401525af1928315610b7a577f346b16707b6fd7dfa94b06e48d3e07849ee55b262c82f1e4bcd214a51a0e9234936113a6575b60409150828152600860205220906113a1604051928392835260406020840152604083019061111f565b0390a2565b505f6113b191610f3b565b60405f611377565b6040906113d0939281528160208201520190611055565b90565b5f905b600554821015611534576113e982610fdf565b90549060031b1c91825f52600460205260ff60405f205416156114105760010191506113d6565b50815f52600460205260405f20600160ff19825416179055815f52600660205261012a61144660405f206040519283809261111f565b5f546001600160a01b0316803b15610578576040516340c10f1960e01b81526001600160a01b038416600482015260248101859052905f908290604490829084905af18015610b7a57611524575b505f546001600160a01b031691823b15610578575f6040518094630588253160e21b82528183816114c9888b600484016113b9565b03925af1928315610b7a577f66db00928be22920bb70a7b8ac75264ad9e1d8ca359032ae8c382d1ee070f4fe93611514575b506113a160405192839260018060a01b031695836113b9565b5f61151e91610f3b565b5f6114fb565b5f61152e91610f3b565b5f611494565b90506064604051602081019061156e816108a644874287916054939183526001600160601b03199060601b16602083015260348201520190565b51902006601981101561159457600116600301806003116112eb57611592916112ff565b565b60039060378110156115b55706600501806005116112eb57611592916112ff565b06600801806008116112eb57611592916112ff56fea2646970667358221220d75ecceae482596a8dceda4943a36243872cadb644f143f2ea62b5c898bee87564736f6c634300081e0033",
    "sourcePath": "c:/Users/taka/Desktop/nft-card-game-next/contracts/GameManager.sol",
    "compiler": {
        "name": "solc",
        "version": "0.8.30+commit.73712a01"
    },
    "functionHashes": {
        "addMultiCardType(string)": "8e977d0e",
        "addUniqueCard(uint256,string)": "03e9b091",
        "cancelUniqueCardForSale(uint256)": "73d65fab",
        "cardPackPrice()": "3ed9dd49",
        "getUserMultiCards(address)": "21baf298",
        "getUserUniqueCards(address)": "decba8a5",
        "multiCardIds(uint256)": "102dfdab",
        "multiCardURIs(uint256)": "eb993ee4",
        "multiNFT()": "5c6c5587",
        "openCardPack()": "760c48a0",
        "owner()": "8da5cb5b",
        "setCardPackPrice(uint256)": "a904125f",
        "setMultiCardForSale(uint256,uint256)": "c6ec2dab",
        "setNFTContracts(address,address)": "c7bb3fda",
        "setUniqueCardForSale(uint256,uint256)": "3e6fdf7d",
        "uniqueCardIds(uint256)": "659ee04c",
        "uniqueCardMinted(uint256)": "a62882d5",
        "uniqueCardURIs(uint256)": "feb5d0cb",
        "uniqueNFT()": "d3c5efb6",
        "withdraw()": "3ccfd60b"
    },
    "gasEstimates": {
        "creation": {
            "codeDepositCost": "1126400",
            "executionCost": "infinite",
            "totalCost": "infinite"
        },
        "external": {
            "addMultiCardType(string)": "infinite",
            "addUniqueCard(uint256,string)": "infinite",
            "cancelUniqueCardForSale(uint256)": "infinite",
            "cardPackPrice()": "2363",
            "getUserMultiCards(address)": "infinite",
            "getUserUniqueCards(address)": "infinite",
            "multiCardIds(uint256)": "6628",
            "multiCardURIs(uint256)": "infinite",
            "multiNFT()": "2409",
            "openCardPack()": "infinite",
            "owner()": "2497",
            "setCardPackPrice(uint256)": "24690",
            "setMultiCardForSale(uint256,uint256)": "infinite",
            "setNFTContracts(address,address)": "51237",
            "setUniqueCardForSale(uint256,uint256)": "infinite",
            "uniqueCardIds(uint256)": "6765",
            "uniqueCardMinted(uint256)": "2595",
            "uniqueCardURIs(uint256)": "infinite",
            "uniqueNFT()": "2626",
            "withdraw()": "infinite"
        },
        "internal": {
            "_mintMultiCard(address,uint256)": "infinite",
            "_mintRandomMultiCard(address)": "infinite",
            "_mintUniqueCard(address)": "infinite"
        }
    }
}